{
  "_format": "hh-sol-artifact-1",
  "contractName": "Counter",
  "sourceName": "contracts/counter.sol",
  "abi": [
    {
      "inputs": [],
      "stateMutability": "nonpayable",
      "type": "constructor"
    },
    {
      "inputs": [],
      "name": "add",
      "outputs": [],
      "stateMutability": "nonpayable",
      "type": "function"
    },
    {
      "inputs": [],
      "name": "getCounts",
      "outputs": [
        {
          "internalType": "uint256",
          "name": "",
          "type": "uint256"
        }
      ],
      "stateMutability": "view",
      "type": "function"
    }
  ],
  "bytecode": "0x608060405234801561001057600080fd5b5060008081905550610176806100276000396000f3fe608060405234801561001057600080fd5b50600436106100365760003560e01c80634f2be91f1461003b578063a537389914610045575b600080fd5b610043610063565b005b61004d61007e565b60405161005a9190610096565b60405180910390f35b600160008082825461007591906100b1565b92505081905550565b60008054905090565b61009081610107565b82525050565b60006020820190506100ab6000830184610087565b92915050565b60006100bc82610107565b91506100c783610107565b9250827fffffffffffffffffffffffffffffffffffffffffffffffffffffffffffffffff038211156100fc576100fb610111565b5b828201905092915050565b6000819050919050565b7f4e487b7100000000000000000000000000000000000000000000000000000000600052601160045260246000fdfea26469706673582212209092140ebca6b64caaaf5a3fb9a09e05a40a78f8a5910ec2347d788dbe3ceac664736f6c63430008040033",
  "linkReferences": {},
  "deployedLinkReferences": {}
}